:100000000AC019C04BC017C016C015C014C013C019
:1000100013C011C010C011271FBFCFE5D0E0DEBF55
:10002000CDBF20E0A0E4B0E001C01D93A234B20730
:10003000E1F751D077C0E4CF1F930F930FB70F9321
:1000400010E04F935F936F937F938F939F9340A1A3
:100050008FE190E0841B910B40E052E261E072E995
:1000600004C076956795579547958A95D2F740FFD6
:1000700002C0109A01C0109840A14F5F403210F4A6
:1000800040A901C010A99F918F917F916F915F91BD
:100090004F910F910FBF0F911F9118951F930F93C1
:1000A0000FB70F9310E04F935F936F934FE956E8AC
:1000B00061E0415050406040E1F700C0000002990B
:1000C00002C041E041A96F915F914F910F910FBF25
:1000D0000F911F911895089A10980A981A9A909A59
:1000E000829AF89443E441BF78944AB7417F4460D0
:1000F0004ABF789450E441A1442361F011A941B76B
:10010000452741BF109863ED70E361507040E9F7F7
:1001100000C000004AB741604ABF88954AB74E7F89
:080120004ABFE9CFF894FFCFBC
:00000001FF
